{
  "_format": "hh-sol-artifact-1",
  "contractName": "StakingRewards",
  "sourceName": "contracts/MyTokenStaking.sol",
  "abi": [
    {
      "inputs": [
        {
          "internalType": "address",
          "name": "_token",
          "type": "address"
        }
      ],
      "stateMutability": "nonpayable",
      "type": "constructor"
    },
    {
      "anonymous": false,
      "inputs": [
        {
          "indexed": true,
          "internalType": "address",
          "name": "previousOwner",
          "type": "address"
        },
        {
          "indexed": true,
          "internalType": "address",
          "name": "newOwner",
          "type": "address"
        }
      ],
      "name": "OwnershipTransferred",
      "type": "event"
    },
    {
      "anonymous": false,
      "inputs": [
        {
          "indexed": true,
          "internalType": "address",
          "name": "user",
          "type": "address"
        },
        {
          "indexed": false,
          "internalType": "uint256",
          "name": "amount",
          "type": "uint256"
        }
      ],
      "name": "RewardsClaimed",
      "type": "event"
    },
    {
      "anonymous": false,
      "inputs": [
        {
          "indexed": false,
          "internalType": "uint256",
          "name": "amount",
          "type": "uint256"
        }
      ],
      "name": "RewardsPoolFunded",
      "type": "event"
    },
    {
      "anonymous": false,
      "inputs": [
        {
          "indexed": true,
          "internalType": "address",
          "name": "user",
          "type": "address"
        },
        {
          "indexed": false,
          "internalType": "uint256",
          "name": "amount",
          "type": "uint256"
        }
      ],
      "name": "Staked",
      "type": "event"
    },
    {
      "anonymous": false,
      "inputs": [
        {
          "indexed": true,
          "internalType": "address",
          "name": "user",
          "type": "address"
        },
        {
          "indexed": false,
          "internalType": "uint256",
          "name": "amount",
          "type": "uint256"
        },
        {
          "indexed": false,
          "internalType": "uint256",
          "name": "penalty",
          "type": "uint256"
        }
      ],
      "name": "Unstaked",
      "type": "event"
    },
    {
      "inputs": [],
      "name": "claimRewards",
      "outputs": [],
      "stateMutability": "nonpayable",
      "type": "function"
    },
    {
      "inputs": [],
      "name": "earlyUnstakePenalty",
      "outputs": [
        {
          "internalType": "uint256",
          "name": "",
          "type": "uint256"
        }
      ],
      "stateMutability": "view",
      "type": "function"
    },
    {
      "inputs": [
        {
          "internalType": "uint256",
          "name": "amount",
          "type": "uint256"
        }
      ],
      "name": "fundRewardsPool",
      "outputs": [],
      "stateMutability": "nonpayable",
      "type": "function"
    },
    {
      "inputs": [
        {
          "internalType": "address",
          "name": "user",
          "type": "address"
        }
      ],
      "name": "getPendingRewards",
      "outputs": [
        {
          "internalType": "uint256",
          "name": "",
          "type": "uint256"
        }
      ],
      "stateMutability": "view",
      "type": "function"
    },
    {
      "inputs": [
        {
          "internalType": "address",
          "name": "user",
          "type": "address"
        }
      ],
      "name": "getStakeInfo",
      "outputs": [
        {
          "internalType": "uint256",
          "name": "amount",
          "type": "uint256"
        },
        {
          "internalType": "uint256",
          "name": "startTime",
          "type": "uint256"
        },
        {
          "internalType": "uint256",
          "name": "pendingRewards",
          "type": "uint256"
        },
        {
          "internalType": "bool",
          "name": "isActive",
          "type": "bool"
        }
      ],
      "stateMutability": "view",
      "type": "function"
    },
    {
      "inputs": [],
      "name": "minStakeAmount",
      "outputs": [
        {
          "internalType": "uint256",
          "name": "",
          "type": "uint256"
        }
      ],
      "stateMutability": "view",
      "type": "function"
    },
    {
      "inputs": [],
      "name": "owner",
      "outputs": [
        {
          "internalType": "address",
          "name": "",
          "type": "address"
        }
      ],
      "stateMutability": "view",
      "type": "function"
    },
    {
      "inputs": [],
      "name": "renounceOwnership",
      "outputs": [],
      "stateMutability": "nonpayable",
      "type": "function"
    },
    {
      "inputs": [],
      "name": "rewardRate",
      "outputs": [
        {
          "internalType": "uint256",
          "name": "",
          "type": "uint256"
        }
      ],
      "stateMutability": "view",
      "type": "function"
    },
    {
      "inputs": [],
      "name": "rewardsPool",
      "outputs": [
        {
          "internalType": "uint256",
          "name": "",
          "type": "uint256"
        }
      ],
      "stateMutability": "view",
      "type": "function"
    },
    {
      "inputs": [
        {
          "internalType": "uint256",
          "name": "newRate",
          "type": "uint256"
        }
      ],
      "name": "setRewardRate",
      "outputs": [],
      "stateMutability": "nonpayable",
      "type": "function"
    },
    {
      "inputs": [
        {
          "internalType": "uint256",
          "name": "amount",
          "type": "uint256"
        }
      ],
      "name": "stake",
      "outputs": [],
      "stateMutability": "nonpayable",
      "type": "function"
    },
    {
      "inputs": [
        {
          "internalType": "address",
          "name": "",
          "type": "address"
        }
      ],
      "name": "stakes",
      "outputs": [
        {
          "internalType": "uint256",
          "name": "amount",
          "type": "uint256"
        },
        {
          "internalType": "uint256",
          "name": "startTime",
          "type": "uint256"
        },
        {
          "internalType": "uint256",
          "name": "lastClaimTime",
          "type": "uint256"
        },
        {
          "internalType": "uint256",
          "name": "rewards",
          "type": "uint256"
        },
        {
          "internalType": "bool",
          "name": "isActive",
          "type": "bool"
        }
      ],
      "stateMutability": "view",
      "type": "function"
    },
    {
      "inputs": [],
      "name": "stakingPeriod",
      "outputs": [
        {
          "internalType": "uint256",
          "name": "",
          "type": "uint256"
        }
      ],
      "stateMutability": "view",
      "type": "function"
    },
    {
      "inputs": [],
      "name": "token",
      "outputs": [
        {
          "internalType": "contract IERC20",
          "name": "",
          "type": "address"
        }
      ],
      "stateMutability": "view",
      "type": "function"
    },
    {
      "inputs": [],
      "name": "totalStaked",
      "outputs": [
        {
          "internalType": "uint256",
          "name": "",
          "type": "uint256"
        }
      ],
      "stateMutability": "view",
      "type": "function"
    },
    {
      "inputs": [
        {
          "internalType": "address",
          "name": "newOwner",
          "type": "address"
        }
      ],
      "name": "transferOwnership",
      "outputs": [],
      "stateMutability": "nonpayable",
      "type": "function"
    },
    {
      "inputs": [],
      "name": "unstake",
      "outputs": [],
      "stateMutability": "nonpayable",
      "type": "function"
    }
  ],
  "bytecode": "0x60806040526103e860025568056bc75e2d6310000060035562278d006004556101f46005553480156200003157600080fd5b506040516200202b3803806200202b833981810160405281019062000057919062000267565b620000776200006b6200013160201b60201c565b6200013960201b60201c565b600073ffffffffffffffffffffffffffffffffffffffff168173ffffffffffffffffffffffffffffffffffffffff1603620000e9576040517f08c379a0000000000000000000000000000000000000000000000000000000008152600401620000e090620002fa565b60405180910390fd5b80600160006101000a81548173ffffffffffffffffffffffffffffffffffffffff021916908373ffffffffffffffffffffffffffffffffffffffff160217905550506200031c565b600033905090565b60008060009054906101000a900473ffffffffffffffffffffffffffffffffffffffff169050816000806101000a81548173ffffffffffffffffffffffffffffffffffffffff021916908373ffffffffffffffffffffffffffffffffffffffff1602179055508173ffffffffffffffffffffffffffffffffffffffff168173ffffffffffffffffffffffffffffffffffffffff167f8be0079c531659141344cd1fd0a4f28419497f9722a3daafe3b4186f6b6457e060405160405180910390a35050565b600080fd5b600073ffffffffffffffffffffffffffffffffffffffff82169050919050565b60006200022f8262000202565b9050919050565b620002418162000222565b81146200024d57600080fd5b50565b600081519050620002618162000236565b92915050565b60006020828403121562000280576200027f620001fd565b5b6000620002908482850162000250565b91505092915050565b600082825260208201905092915050565b7f496e76616c696420746f6b656e00000000000000000000000000000000000000600082015250565b6000620002e2600d8362000299565b9150620002ef82620002aa565b602082019050919050565b600060208201905081810360008301526200031581620002d3565b9050919050565b611cff806200032c6000396000f3fe608060405234801561001057600080fd5b50600436106101165760003560e01c80638da5cb5b116100a2578063c345315311610071578063c345315314610275578063f1887684146102a8578063f2fde38b146102c6578063f6ed2017146102e2578063fc0c546a1461031257610116565b80638da5cb5b146102015780639e447fc61461021f578063a694fc3a1461023b578063c03d5b471461025757610116565b80632def6620116100e95780632def6620146101a7578063372500ab146101b1578063715018a6146101bb5780637b0a47ee146101c5578063817b1cd2146101e357610116565b80630359fea91461011b5780631367eaf21461013957806316934fc4146101575780632c4eb8b21461018b575b600080fd5b610123610330565b60405161013091906114bc565b60405180910390f35b610141610336565b60405161014e91906114bc565b60405180910390f35b610171600480360381019061016c919061153a565b61033c565b604051610182959493929190611582565b60405180910390f35b6101a560048036038101906101a09190611601565b61037f565b005b6101af6104bb565b005b6101b96108b8565b005b6101c36108c2565b005b6101cd6108d6565b6040516101da91906114bc565b60405180910390f35b6101eb6108dc565b6040516101f891906114bc565b60405180910390f35b6102096108e2565b604051610216919061163d565b60405180910390f35b61023960048036038101906102349190611601565b61090b565b005b61025560048036038101906102509190611601565b610962565b005b61025f610ce0565b60405161026c91906114bc565b60405180910390f35b61028f600480360381019061028a919061153a565b610ce6565b60405161029f9493929190611658565b60405180910390f35b6102b0610dda565b6040516102bd91906114bc565b60405180910390f35b6102e060048036038101906102db919061153a565b610de0565b005b6102fc60048036038101906102f7919061153a565b610e63565b60405161030991906114bc565b60405180910390f35b61031a61106b565b60405161032791906116fc565b60405180910390f35b60085481565b60055481565b60066020528060005260406000206000915090508060000154908060010154908060020154908060030154908060040160009054906101000a900460ff16905085565b610387611091565b600160009054906101000a900473ffffffffffffffffffffffffffffffffffffffff1673ffffffffffffffffffffffffffffffffffffffff166323b872dd3330846040518463ffffffff1660e01b81526004016103e693929190611717565b6020604051808303816000875af1158015610405573d6000803e3d6000fd5b505050506040513d601f19601f82011682018060405250810190610429919061177a565b610468576040517f08c379a000000000000000000000000000000000000000000000000000000000815260040161045f90611804565b60405180910390fd5b806008600082825461047a9190611853565b925050819055507f74ff97027ea986e5dfc1f76839aa0d006c8a1d13e27cecfe74415260a88b605b816040516104b091906114bc565b60405180910390a150565b600660003373ffffffffffffffffffffffffffffffffffffffff1673ffffffffffffffffffffffffffffffffffffffff16815260200190815260200160002060040160009054906101000a900460ff1661054a576040517f08c379a0000000000000000000000000000000000000000000000000000000008152600401610541906118d3565b60405180910390fd5b6000600660003373ffffffffffffffffffffffffffffffffffffffff1673ffffffffffffffffffffffffffffffffffffffff16815260200190815260200160002060000154116105cf576040517f08c379a00000000000000000000000000000000000000000000000000000000081526004016105c69061193f565b60405180910390fd5b6000600660003373ffffffffffffffffffffffffffffffffffffffff1673ffffffffffffffffffffffffffffffffffffffff1681526020019081526020016000206000015490506000600454600660003373ffffffffffffffffffffffffffffffffffffffff1673ffffffffffffffffffffffffffffffffffffffff168152602001908152602001600020600101546106689190611853565b42101561068d5761271060055483610680919061195f565b61068a91906119d0565b90505b61069561110f565b600081836106a39190611a01565b90506000600660003373ffffffffffffffffffffffffffffffffffffffff1673ffffffffffffffffffffffffffffffffffffffff168152602001908152602001600020600001819055506000600660003373ffffffffffffffffffffffffffffffffffffffff1673ffffffffffffffffffffffffffffffffffffffff16815260200190815260200160002060040160006101000a81548160ff021916908315150217905550826007600082825461075a9190611a01565b92505081905550600160009054906101000a900473ffffffffffffffffffffffffffffffffffffffff1673ffffffffffffffffffffffffffffffffffffffff1663a9059cbb33836040518363ffffffff1660e01b81526004016107be929190611a35565b6020604051808303816000875af11580156107dd573d6000803e3d6000fd5b505050506040513d601f19601f82011682018060405250810190610801919061177a565b610840576040517f08c379a000000000000000000000000000000000000000000000000000000000815260040161083790611804565b60405180910390fd5b600082111561086357816008600082825461085b9190611853565b925050819055505b3373ffffffffffffffffffffffffffffffffffffffff167f7fc4727e062e336010f2c282598ef5f14facb3de68cf8195c2f23e1454b2b74e84846040516108ab929190611a5e565b60405180910390a2505050565b6108c061110f565b565b6108ca611091565b6108d460006113d7565b565b60025481565b60075481565b60008060009054906101000a900473ffffffffffffffffffffffffffffffffffffffff16905090565b610913611091565b612710811115610958576040517f08c379a000000000000000000000000000000000000000000000000000000000815260040161094f90611ad3565b60405180910390fd5b8060028190555050565b6003548110156109a7576040517f08c379a000000000000000000000000000000000000000000000000000000000815260040161099e90611b3f565b60405180910390fd5b600160009054906101000a900473ffffffffffffffffffffffffffffffffffffffff1673ffffffffffffffffffffffffffffffffffffffff166323b872dd3330846040518463ffffffff1660e01b8152600401610a0693929190611717565b6020604051808303816000875af1158015610a25573d6000803e3d6000fd5b505050506040513d601f19601f82011682018060405250810190610a49919061177a565b610a88576040517f08c379a0000000000000000000000000000000000000000000000000000000008152600401610a7f90611804565b60405180910390fd5b600660003373ffffffffffffffffffffffffffffffffffffffff1673ffffffffffffffffffffffffffffffffffffffff16815260200190815260200160002060040160009054906101000a900460ff168015610b2657506000600660003373ffffffffffffffffffffffffffffffffffffffff1673ffffffffffffffffffffffffffffffffffffffff16815260200190815260200160002060000154115b15610b3457610b3361110f565b5b80600660003373ffffffffffffffffffffffffffffffffffffffff1673ffffffffffffffffffffffffffffffffffffffff1681526020019081526020016000206000016000828254610b869190611853565b9250508190555042600660003373ffffffffffffffffffffffffffffffffffffffff1673ffffffffffffffffffffffffffffffffffffffff1681526020019081526020016000206001018190555042600660003373ffffffffffffffffffffffffffffffffffffffff1673ffffffffffffffffffffffffffffffffffffffff168152602001908152602001600020600201819055506001600660003373ffffffffffffffffffffffffffffffffffffffff1673ffffffffffffffffffffffffffffffffffffffff16815260200190815260200160002060040160006101000a81548160ff0219169083151502179055508060076000828254610c889190611853565b925050819055503373ffffffffffffffffffffffffffffffffffffffff167f9e71bc8eea02a63969f509818f2dafb9254532904319f9dbda79b67bd34a5f3d82604051610cd591906114bc565b60405180910390a250565b60045481565b600080600080600660008673ffffffffffffffffffffffffffffffffffffffff1673ffffffffffffffffffffffffffffffffffffffff16815260200190815260200160002060000154600660008773ffffffffffffffffffffffffffffffffffffffff1673ffffffffffffffffffffffffffffffffffffffff16815260200190815260200160002060010154610d7b87610e63565b600660008973ffffffffffffffffffffffffffffffffffffffff1673ffffffffffffffffffffffffffffffffffffffff16815260200190815260200160002060040160009054906101000a900460ff1693509350935093509193509193565b60035481565b610de8611091565b600073ffffffffffffffffffffffffffffffffffffffff168173ffffffffffffffffffffffffffffffffffffffff1603610e57576040517f08c379a0000000000000000000000000000000000000000000000000000000008152600401610e4e90611bd1565b60405180910390fd5b610e60816113d7565b50565b6000600660008373ffffffffffffffffffffffffffffffffffffffff1673ffffffffffffffffffffffffffffffffffffffff16815260200190815260200160002060040160009054906101000a900460ff161580610f0357506000600660008473ffffffffffffffffffffffffffffffffffffffff1673ffffffffffffffffffffffffffffffffffffffff16815260200190815260200160002060000154145b15610f5257600660008373ffffffffffffffffffffffffffffffffffffffff1673ffffffffffffffffffffffffffffffffffffffff168152602001908152602001600020600301549050611066565b6000600660008473ffffffffffffffffffffffffffffffffffffffff1673ffffffffffffffffffffffffffffffffffffffff1681526020019081526020016000206002015442610fa29190611a01565b9050600064496cebb80082600254600660008873ffffffffffffffffffffffffffffffffffffffff1673ffffffffffffffffffffffffffffffffffffffff16815260200190815260200160002060000154610ffd919061195f565b611007919061195f565b61101191906119d0565b905080600660008673ffffffffffffffffffffffffffffffffffffffff1673ffffffffffffffffffffffffffffffffffffffff168152602001908152602001600020600301546110619190611853565b925050505b919050565b600160009054906101000a900473ffffffffffffffffffffffffffffffffffffffff1681565b61109961149b565b73ffffffffffffffffffffffffffffffffffffffff166110b76108e2565b73ffffffffffffffffffffffffffffffffffffffff161461110d576040517f08c379a000000000000000000000000000000000000000000000000000000000815260040161110490611c3d565b60405180910390fd5b565b600660003373ffffffffffffffffffffffffffffffffffffffff1673ffffffffffffffffffffffffffffffffffffffff16815260200190815260200160002060040160009054906101000a900460ff1661119e576040517f08c379a0000000000000000000000000000000000000000000000000000000008152600401611195906118d3565b60405180910390fd5b60006111a933610e63565b9050600081036111b957506113d5565b8060085410156111fe576040517f08c379a00000000000000000000000000000000000000000000000000000000081526004016111f590611ca9565b60405180910390fd5b6000600660003373ffffffffffffffffffffffffffffffffffffffff1673ffffffffffffffffffffffffffffffffffffffff1681526020019081526020016000206003018190555042600660003373ffffffffffffffffffffffffffffffffffffffff1673ffffffffffffffffffffffffffffffffffffffff16815260200190815260200160002060020181905550806008600082825461129f9190611a01565b92505081905550600160009054906101000a900473ffffffffffffffffffffffffffffffffffffffff1673ffffffffffffffffffffffffffffffffffffffff1663a9059cbb33836040518363ffffffff1660e01b8152600401611303929190611a35565b6020604051808303816000875af1158015611322573d6000803e3d6000fd5b505050506040513d601f19601f82011682018060405250810190611346919061177a565b611385576040517f08c379a000000000000000000000000000000000000000000000000000000000815260040161137c90611804565b60405180910390fd5b3373ffffffffffffffffffffffffffffffffffffffff167ffc30cddea38e2bf4d6ea7d3f9ed3b6ad7f176419f4963bd81318067a4aee73fe826040516113cb91906114bc565b60405180910390a2505b565b60008060009054906101000a900473ffffffffffffffffffffffffffffffffffffffff169050816000806101000a81548173ffffffffffffffffffffffffffffffffffffffff021916908373ffffffffffffffffffffffffffffffffffffffff1602179055508173ffffffffffffffffffffffffffffffffffffffff168173ffffffffffffffffffffffffffffffffffffffff167f8be0079c531659141344cd1fd0a4f28419497f9722a3daafe3b4186f6b6457e060405160405180910390a35050565b600033905090565b6000819050919050565b6114b6816114a3565b82525050565b60006020820190506114d160008301846114ad565b92915050565b600080fd5b600073ffffffffffffffffffffffffffffffffffffffff82169050919050565b6000611507826114dc565b9050919050565b611517816114fc565b811461152257600080fd5b50565b6000813590506115348161150e565b92915050565b6000602082840312156115505761154f6114d7565b5b600061155e84828501611525565b91505092915050565b60008115159050919050565b61157c81611567565b82525050565b600060a08201905061159760008301886114ad565b6115a460208301876114ad565b6115b160408301866114ad565b6115be60608301856114ad565b6115cb6080830184611573565b9695505050505050565b6115de816114a3565b81146115e957600080fd5b50565b6000813590506115fb816115d5565b92915050565b600060208284031215611617576116166114d7565b5b6000611625848285016115ec565b91505092915050565b611637816114fc565b82525050565b6000602082019050611652600083018461162e565b92915050565b600060808201905061166d60008301876114ad565b61167a60208301866114ad565b61168760408301856114ad565b6116946060830184611573565b95945050505050565b6000819050919050565b60006116c26116bd6116b8846114dc565b61169d565b6114dc565b9050919050565b60006116d4826116a7565b9050919050565b60006116e6826116c9565b9050919050565b6116f6816116db565b82525050565b600060208201905061171160008301846116ed565b92915050565b600060608201905061172c600083018661162e565b611739602083018561162e565b61174660408301846114ad565b949350505050565b61175781611567565b811461176257600080fd5b50565b6000815190506117748161174e565b92915050565b6000602082840312156117905761178f6114d7565b5b600061179e84828501611765565b91505092915050565b600082825260208201905092915050565b7f5472616e73666572206661696c65640000000000000000000000000000000000600082015250565b60006117ee600f836117a7565b91506117f9826117b8565b602082019050919050565b6000602082019050818103600083015261181d816117e1565b9050919050565b7f4e487b7100000000000000000000000000000000000000000000000000000000600052601160045260246000fd5b600061185e826114a3565b9150611869836114a3565b925082820190508082111561188157611880611824565b5b92915050565b7f4e6f20616374697665207374616b650000000000000000000000000000000000600082015250565b60006118bd600f836117a7565b91506118c882611887565b602082019050919050565b600060208201905081810360008301526118ec816118b0565b9050919050565b7f4e6f20746f6b656e730000000000000000000000000000000000000000000000600082015250565b60006119296009836117a7565b9150611934826118f3565b602082019050919050565b600060208201905081810360008301526119588161191c565b9050919050565b600061196a826114a3565b9150611975836114a3565b9250828202611983816114a3565b9150828204841483151761199a57611999611824565b5b5092915050565b7f4e487b7100000000000000000000000000000000000000000000000000000000600052601260045260246000fd5b60006119db826114a3565b91506119e6836114a3565b9250826119f6576119f56119a1565b5b828204905092915050565b6000611a0c826114a3565b9150611a17836114a3565b9250828203905081811115611a2f57611a2e611824565b5b92915050565b6000604082019050611a4a600083018561162e565b611a5760208301846114ad565b9392505050565b6000604082019050611a7360008301856114ad565b611a8060208301846114ad565b9392505050565b7f496e76616c696420726174650000000000000000000000000000000000000000600082015250565b6000611abd600c836117a7565b9150611ac882611a87565b602082019050919050565b60006020820190508181036000830152611aec81611ab0565b9050919050565b7f42656c6f77206d696e696d756d00000000000000000000000000000000000000600082015250565b6000611b29600d836117a7565b9150611b3482611af3565b602082019050919050565b60006020820190508181036000830152611b5881611b1c565b9050919050565b7f4f776e61626c653a206e6577206f776e657220697320746865207a65726f206160008201527f6464726573730000000000000000000000000000000000000000000000000000602082015250565b6000611bbb6026836117a7565b9150611bc682611b5f565b604082019050919050565b60006020820190508181036000830152611bea81611bae565b9050919050565b7f4f776e61626c653a2063616c6c6572206973206e6f7420746865206f776e6572600082015250565b6000611c276020836117a7565b9150611c3282611bf1565b602082019050919050565b60006020820190508181036000830152611c5681611c1a565b9050919050565b7f496e73756666696369656e7420706f6f6c000000000000000000000000000000600082015250565b6000611c936011836117a7565b9150611c9e82611c5d565b602082019050919050565b60006020820190508181036000830152611cc281611c86565b905091905056fea264697066735822122020c2108af7e5e14e9cb9c1c6928818b74f2d939830e801ab351dedbd8a5d43ac64736f6c63430008140033",
  "linkReferences": {},
  "deployedLinkReferences": {}
}