{
  "_format": "hh-sol-artifact-1",
  "contractName": "MyToken",
  "sourceName": "contracts/MyToken.sol",
  "abi": [
    {
      "inputs": [
        {
          "internalType": "uint256",
          "name": "initialSupply",
          "type": "uint256"
        }
      ],
      "stateMutability": "nonpayable",
      "type": "constructor"
    },
    {
      "anonymous": false,
      "inputs": [
        {
          "indexed": true,
          "internalType": "address",
          "name": "owner",
          "type": "address"
        },
        {
          "indexed": true,
          "internalType": "address",
          "name": "spender",
          "type": "address"
        },
        {
          "indexed": false,
          "internalType": "uint256",
          "name": "value",
          "type": "uint256"
        }
      ],
      "name": "Approval",
      "type": "event"
    },
    {
      "anonymous": false,
      "inputs": [
        {
          "indexed": true,
          "internalType": "address",
          "name": "account",
          "type": "address"
        },
        {
          "indexed": false,
          "internalType": "bool",
          "name": "isBlacklisted",
          "type": "bool"
        }
      ],
      "name": "BlacklistUpdated",
      "type": "event"
    },
    {
      "anonymous": false,
      "inputs": [
        {
          "indexed": true,
          "internalType": "address",
          "name": "previousOwner",
          "type": "address"
        },
        {
          "indexed": true,
          "internalType": "address",
          "name": "newOwner",
          "type": "address"
        }
      ],
      "name": "OwnershipTransferred",
      "type": "event"
    },
    {
      "anonymous": false,
      "inputs": [
        {
          "indexed": true,
          "internalType": "address",
          "name": "from",
          "type": "address"
        },
        {
          "indexed": true,
          "internalType": "address",
          "name": "to",
          "type": "address"
        },
        {
          "indexed": false,
          "internalType": "uint256",
          "name": "value",
          "type": "uint256"
        }
      ],
      "name": "Transfer",
      "type": "event"
    },
    {
      "inputs": [],
      "name": "MAX_SUPPLY",
      "outputs": [
        {
          "internalType": "uint256",
          "name": "",
          "type": "uint256"
        }
      ],
      "stateMutability": "view",
      "type": "function"
    },
    {
      "inputs": [
        {
          "internalType": "address",
          "name": "account",
          "type": "address"
        }
      ],
      "name": "addToBlacklist",
      "outputs": [],
      "stateMutability": "nonpayable",
      "type": "function"
    },
    {
      "inputs": [
        {
          "internalType": "address",
          "name": "owner",
          "type": "address"
        },
        {
          "internalType": "address",
          "name": "spender",
          "type": "address"
        }
      ],
      "name": "allowance",
      "outputs": [
        {
          "internalType": "uint256",
          "name": "",
          "type": "uint256"
        }
      ],
      "stateMutability": "view",
      "type": "function"
    },
    {
      "inputs": [
        {
          "internalType": "address",
          "name": "spender",
          "type": "address"
        },
        {
          "internalType": "uint256",
          "name": "amount",
          "type": "uint256"
        }
      ],
      "name": "approve",
      "outputs": [
        {
          "internalType": "bool",
          "name": "",
          "type": "bool"
        }
      ],
      "stateMutability": "nonpayable",
      "type": "function"
    },
    {
      "inputs": [
        {
          "internalType": "address",
          "name": "account",
          "type": "address"
        }
      ],
      "name": "balanceOf",
      "outputs": [
        {
          "internalType": "uint256",
          "name": "",
          "type": "uint256"
        }
      ],
      "stateMutability": "view",
      "type": "function"
    },
    {
      "inputs": [
        {
          "internalType": "address",
          "name": "",
          "type": "address"
        }
      ],
      "name": "blacklisted",
      "outputs": [
        {
          "internalType": "bool",
          "name": "",
          "type": "bool"
        }
      ],
      "stateMutability": "view",
      "type": "function"
    },
    {
      "inputs": [
        {
          "internalType": "uint256",
          "name": "amount",
          "type": "uint256"
        }
      ],
      "name": "burn",
      "outputs": [],
      "stateMutability": "nonpayable",
      "type": "function"
    },
    {
      "inputs": [
        {
          "internalType": "address",
          "name": "account",
          "type": "address"
        },
        {
          "internalType": "uint256",
          "name": "amount",
          "type": "uint256"
        }
      ],
      "name": "burnFrom",
      "outputs": [],
      "stateMutability": "nonpayable",
      "type": "function"
    },
    {
      "inputs": [],
      "name": "decimals",
      "outputs": [
        {
          "internalType": "uint8",
          "name": "",
          "type": "uint8"
        }
      ],
      "stateMutability": "pure",
      "type": "function"
    },
    {
      "inputs": [
        {
          "internalType": "address",
          "name": "spender",
          "type": "address"
        },
        {
          "internalType": "uint256",
          "name": "subtractedValue",
          "type": "uint256"
        }
      ],
      "name": "decreaseAllowance",
      "outputs": [
        {
          "internalType": "bool",
          "name": "",
          "type": "bool"
        }
      ],
      "stateMutability": "nonpayable",
      "type": "function"
    },
    {
      "inputs": [
        {
          "internalType": "address",
          "name": "spender",
          "type": "address"
        },
        {
          "internalType": "uint256",
          "name": "addedValue",
          "type": "uint256"
        }
      ],
      "name": "increaseAllowance",
      "outputs": [
        {
          "internalType": "bool",
          "name": "",
          "type": "bool"
        }
      ],
      "stateMutability": "nonpayable",
      "type": "function"
    },
    {
      "inputs": [
        {
          "internalType": "address",
          "name": "to",
          "type": "address"
        },
        {
          "internalType": "uint256",
          "name": "amount",
          "type": "uint256"
        }
      ],
      "name": "mint",
      "outputs": [],
      "stateMutability": "nonpayable",
      "type": "function"
    },
    {
      "inputs": [],
      "name": "name",
      "outputs": [
        {
          "internalType": "string",
          "name": "",
          "type": "string"
        }
      ],
      "stateMutability": "view",
      "type": "function"
    },
    {
      "inputs": [],
      "name": "owner",
      "outputs": [
        {
          "internalType": "address",
          "name": "",
          "type": "address"
        }
      ],
      "stateMutability": "view",
      "type": "function"
    },
    {
      "inputs": [
        {
          "internalType": "address",
          "name": "account",
          "type": "address"
        }
      ],
      "name": "removeFromBlacklist",
      "outputs": [],
      "stateMutability": "nonpayable",
      "type": "function"
    },
    {
      "inputs": [],
      "name": "renounceOwnership",
      "outputs": [],
      "stateMutability": "nonpayable",
      "type": "function"
    },
    {
      "inputs": [],
      "name": "symbol",
      "outputs": [
        {
          "internalType": "string",
          "name": "",
          "type": "string"
        }
      ],
      "stateMutability": "view",
      "type": "function"
    },
    {
      "inputs": [],
      "name": "totalSupply",
      "outputs": [
        {
          "internalType": "uint256",
          "name": "",
          "type": "uint256"
        }
      ],
      "stateMutability": "view",
      "type": "function"
    },
    {
      "inputs": [
        {
          "internalType": "address",
          "name": "to",
          "type": "address"
        },
        {
          "internalType": "uint256",
          "name": "amount",
          "type": "uint256"
        }
      ],
      "name": "transfer",
      "outputs": [
        {
          "internalType": "bool",
          "name": "",
          "type": "bool"
        }
      ],
      "stateMutability": "nonpayable",
      "type": "function"
    },
    {
      "inputs": [
        {
          "internalType": "address",
          "name": "from",
          "type": "address"
        },
        {
          "internalType": "address",
          "name": "to",
          "type": "address"
        },
        {
          "internalType": "uint256",
          "name": "amount",
          "type": "uint256"
        }
      ],
      "name": "transferFrom",
      "outputs": [
        {
          "internalType": "bool",
          "name": "",
          "type": "bool"
        }
      ],
      "stateMutability": "nonpayable",
      "type": "function"
    },
    {
      "inputs": [
        {
          "internalType": "address",
          "name": "newOwner",
          "type": "address"
        }
      ],
      "name": "transferOwnership",
      "outputs": [],
      "stateMutability": "nonpayable",
      "type": "function"
    }
  ],
  "bytecode": "0x60806040523480156200001157600080fd5b5060405162002d5d38038062002d5d833981810160405281019062000037919062000529565b6040518060400160405280600781526020017f4d79546f6b656e000000000000000000000000000000000000000000000000008152506040518060400160405280600381526020017f4d544b00000000000000000000000000000000000000000000000000000000008152508160039081620000b49190620007cb565b508060049081620000c69190620007cb565b505050620000e9620000dd6200016c60201b60201c565b6200017460201b60201c565b633b9aca0081111562000133576040517f08c379a00000000000000000000000000000000000000000000000000000000081526004016200012a9062000913565b60405180910390fd5b600081111562000165576200016433670de0b6b3a76400008362000158919062000964565b6200023a60201b60201c565b5b5062000b6e565b600033905090565b6000600560009054906101000a900473ffffffffffffffffffffffffffffffffffffffff16905081600560006101000a81548173ffffffffffffffffffffffffffffffffffffffff021916908373ffffffffffffffffffffffffffffffffffffffff1602179055508173ffffffffffffffffffffffffffffffffffffffff168173ffffffffffffffffffffffffffffffffffffffff167f8be0079c531659141344cd1fd0a4f28419497f9722a3daafe3b4186f6b6457e060405160405180910390a35050565b600073ffffffffffffffffffffffffffffffffffffffff168273ffffffffffffffffffffffffffffffffffffffff1603620002ac576040517f08c379a0000000000000000000000000000000000000000000000000000000008152600401620002a390620009ff565b60405180910390fd5b620002c060008383620003a760201b60201c565b8060026000828254620002d4919062000a21565b92505081905550806000808473ffffffffffffffffffffffffffffffffffffffff1673ffffffffffffffffffffffffffffffffffffffff168152602001908152602001600020600082825401925050819055508173ffffffffffffffffffffffffffffffffffffffff16600073ffffffffffffffffffffffffffffffffffffffff167fddf252ad1be2c89b69c2b068fc378daa952ba7f163c4a11628f55a4df523b3ef8360405162000387919062000a6d565b60405180910390a3620003a360008383620004df60201b60201c565b5050565b600660008473ffffffffffffffffffffffffffffffffffffffff1673ffffffffffffffffffffffffffffffffffffffff16815260200190815260200160002060009054906101000a900460ff161562000437576040517f08c379a00000000000000000000000000000000000000000000000000000000081526004016200042e9062000ada565b60405180910390fd5b600660008373ffffffffffffffffffffffffffffffffffffffff1673ffffffffffffffffffffffffffffffffffffffff16815260200190815260200160002060009054906101000a900460ff1615620004c7576040517f08c379a0000000000000000000000000000000000000000000000000000000008152600401620004be9062000b4c565b60405180910390fd5b620004da838383620004e460201b60201c565b505050565b505050565b505050565b600080fd5b6000819050919050565b6200050381620004ee565b81146200050f57600080fd5b50565b6000815190506200052381620004f8565b92915050565b600060208284031215620005425762000541620004e9565b5b6000620005528482850162000512565b91505092915050565b600081519050919050565b7f4e487b7100000000000000000000000000000000000000000000000000000000600052604160045260246000fd5b7f4e487b7100000000000000000000000000000000000000000000000000000000600052602260045260246000fd5b60006002820490506001821680620005dd57607f821691505b602082108103620005f357620005f262000595565b5b50919050565b60008190508160005260206000209050919050565b60006020601f8301049050919050565b600082821b905092915050565b6000600883026200065d7fffffffffffffffffffffffffffffffffffffffffffffffffffffffffffffffff826200061e565b6200066986836200061e565b95508019841693508086168417925050509392505050565b6000819050919050565b6000620006ac620006a6620006a084620004ee565b62000681565b620004ee565b9050919050565b6000819050919050565b620006c8836200068b565b620006e0620006d782620006b3565b8484546200062b565b825550505050565b600090565b620006f7620006e8565b62000704818484620006bd565b505050565b5b818110156200072c5762000720600082620006ed565b6001810190506200070a565b5050565b601f8211156200077b576200074581620005f9565b62000750846200060e565b8101602085101562000760578190505b620007786200076f856200060e565b83018262000709565b50505b505050565b600082821c905092915050565b6000620007a06000198460080262000780565b1980831691505092915050565b6000620007bb83836200078d565b9150826002028217905092915050565b620007d6826200055b565b67ffffffffffffffff811115620007f257620007f162000566565b5b620007fe8254620005c4565b6200080b82828562000730565b600060209050601f8311600181146200084357600084156200082e578287015190505b6200083a8582620007ad565b865550620008aa565b601f1984166200085386620005f9565b60005b828110156200087d5784890151825560018201915060208501945060208101905062000856565b868310156200089d578489015162000899601f8916826200078d565b8355505b6001600288020188555050505b505050505050565b600082825260208201905092915050565b7f537570706c7920746f6f206c6172676500000000000000000000000000000000600082015250565b6000620008fb601083620008b2565b91506200090882620008c3565b602082019050919050565b600060208201905081810360008301526200092e81620008ec565b9050919050565b7f4e487b7100000000000000000000000000000000000000000000000000000000600052601160045260246000fd5b60006200097182620004ee565b91506200097e83620004ee565b92508282026200098e81620004ee565b91508282048414831517620009a857620009a762000935565b5b5092915050565b7f45524332303a206d696e7420746f20746865207a65726f206164647265737300600082015250565b6000620009e7601f83620008b2565b9150620009f482620009af565b602082019050919050565b6000602082019050818103600083015262000a1a81620009d8565b9050919050565b600062000a2e82620004ee565b915062000a3b83620004ee565b925082820190508082111562000a565762000a5562000935565b5b92915050565b62000a6781620004ee565b82525050565b600060208201905062000a84600083018462000a5c565b92915050565b7f53656e64657220626c61636b6c69737465640000000000000000000000000000600082015250565b600062000ac2601283620008b2565b915062000acf8262000a8a565b602082019050919050565b6000602082019050818103600083015262000af58162000ab3565b9050919050565b7f526563697069656e7420626c61636b6c69737465640000000000000000000000600082015250565b600062000b34601583620008b2565b915062000b418262000afc565b602082019050919050565b6000602082019050818103600083015262000b678162000b25565b9050919050565b6121df8062000b7e6000396000f3fe608060405234801561001057600080fd5b50600436106101375760003560e01c8063537df3b6116100b857806395d89b411161007c57806395d89b4114610328578063a457c2d714610346578063a9059cbb14610376578063dbac26e9146103a6578063dd62ed3e146103d6578063f2fde38b1461040657610137565b8063537df3b61461029857806370a08231146102b4578063715018a6146102e457806379cc6790146102ee5780638da5cb5b1461030a57610137565b806332cb6b0c116100ff57806332cb6b0c146101f6578063395093511461021457806340c10f191461024457806342966c681461026057806344337ea11461027c57610137565b806306fdde031461013c578063095ea7b31461015a57806318160ddd1461018a57806323b872dd146101a8578063313ce567146101d8575b600080fd5b610144610422565b6040516101519190611627565b60405180910390f35b610174600480360381019061016f91906116e2565b6104b4565b604051610181919061173d565b60405180910390f35b6101926104d7565b60405161019f9190611767565b60405180910390f35b6101c260048036038101906101bd9190611782565b6104e1565b6040516101cf919061173d565b60405180910390f35b6101e0610510565b6040516101ed91906117f1565b60405180910390f35b6101fe610519565b60405161020b9190611767565b60405180910390f35b61022e600480360381019061022991906116e2565b610529565b60405161023b919061173d565b60405180910390f35b61025e600480360381019061025991906116e2565b610560565b005b61027a6004803603810190610275919061180c565b610646565b005b61029660048036038101906102919190611839565b61065a565b005b6102b260048036038101906102ad9190611839565b61077b565b005b6102ce60048036038101906102c99190611839565b61082d565b6040516102db9190611767565b60405180910390f35b6102ec610875565b005b610308600480360381019061030391906116e2565b610889565b005b6103126108a9565b60405161031f9190611875565b60405180910390f35b6103306108d3565b60405161033d9190611627565b60405180910390f35b610360600480360381019061035b91906116e2565b610965565b60405161036d919061173d565b60405180910390f35b610390600480360381019061038b91906116e2565b6109dc565b60405161039d919061173d565b60405180910390f35b6103c060048036038101906103bb9190611839565b6109ff565b6040516103cd919061173d565b60405180910390f35b6103f060048036038101906103eb9190611890565b610a1f565b6040516103fd9190611767565b60405180910390f35b610420600480360381019061041b9190611839565b610aa6565b005b606060038054610431906118ff565b80601f016020809104026020016040519081016040528092919081815260200182805461045d906118ff565b80156104aa5780601f1061047f576101008083540402835291602001916104aa565b820191906000526020600020905b81548152906001019060200180831161048d57829003601f168201915b5050505050905090565b6000806104bf610b29565b90506104cc818585610b31565b600191505092915050565b6000600254905090565b6000806104ec610b29565b90506104f9858285610cfa565b610504858585610d86565b60019150509392505050565b60006012905090565b6b033b2e3c9fd0803ce800000081565b600080610534610b29565b90506105558185856105468589610a1f565b610550919061195f565b610b31565b600191505092915050565b610568610ffc565b600073ffffffffffffffffffffffffffffffffffffffff168273ffffffffffffffffffffffffffffffffffffffff16036105d7576040517f08c379a00000000000000000000000000000000000000000000000000000000081526004016105ce906119df565b60405180910390fd5b6b033b2e3c9fd0803ce8000000816105ed6104d7565b6105f7919061195f565b1115610638576040517f08c379a000000000000000000000000000000000000000000000000000000000815260040161062f90611a4b565b60405180910390fd5b610642828261107a565b5050565b610657610651610b29565b826111d0565b50565b610662610ffc565b600073ffffffffffffffffffffffffffffffffffffffff168173ffffffffffffffffffffffffffffffffffffffff16036106d1576040517f08c379a00000000000000000000000000000000000000000000000000000000081526004016106c8906119df565b60405180910390fd5b6001600660008373ffffffffffffffffffffffffffffffffffffffff1673ffffffffffffffffffffffffffffffffffffffff16815260200190815260200160002060006101000a81548160ff0219169083151502179055508073ffffffffffffffffffffffffffffffffffffffff167f6a12b3df6cba4203bd7fd06b816789f87de8c594299aed5717ae070fac781bac6001604051610770919061173d565b60405180910390a250565b610783610ffc565b6000600660008373ffffffffffffffffffffffffffffffffffffffff1673ffffffffffffffffffffffffffffffffffffffff16815260200190815260200160002060006101000a81548160ff0219169083151502179055508073ffffffffffffffffffffffffffffffffffffffff167f6a12b3df6cba4203bd7fd06b816789f87de8c594299aed5717ae070fac781bac6000604051610822919061173d565b60405180910390a250565b60008060008373ffffffffffffffffffffffffffffffffffffffff1673ffffffffffffffffffffffffffffffffffffffff168152602001908152602001600020549050919050565b61087d610ffc565b610887600061139d565b565b61089b82610895610b29565b83610cfa565b6108a582826111d0565b5050565b6000600560009054906101000a900473ffffffffffffffffffffffffffffffffffffffff16905090565b6060600480546108e2906118ff565b80601f016020809104026020016040519081016040528092919081815260200182805461090e906118ff565b801561095b5780601f106109305761010080835404028352916020019161095b565b820191906000526020600020905b81548152906001019060200180831161093e57829003601f168201915b5050505050905090565b600080610970610b29565b9050600061097e8286610a1f565b9050838110156109c3576040517f08c379a00000000000000000000000000000000000000000000000000000000081526004016109ba90611add565b60405180910390fd5b6109d08286868403610b31565b60019250505092915050565b6000806109e7610b29565b90506109f4818585610d86565b600191505092915050565b60066020528060005260406000206000915054906101000a900460ff1681565b6000600160008473ffffffffffffffffffffffffffffffffffffffff1673ffffffffffffffffffffffffffffffffffffffff16815260200190815260200160002060008373ffffffffffffffffffffffffffffffffffffffff1673ffffffffffffffffffffffffffffffffffffffff16815260200190815260200160002054905092915050565b610aae610ffc565b600073ffffffffffffffffffffffffffffffffffffffff168173ffffffffffffffffffffffffffffffffffffffff1603610b1d576040517f08c379a0000000000000000000000000000000000000000000000000000000008152600401610b1490611b6f565b60405180910390fd5b610b268161139d565b50565b600033905090565b600073ffffffffffffffffffffffffffffffffffffffff168373ffffffffffffffffffffffffffffffffffffffff1603610ba0576040517f08c379a0000000000000000000000000000000000000000000000000000000008152600401610b9790611c01565b60405180910390fd5b600073ffffffffffffffffffffffffffffffffffffffff168273ffffffffffffffffffffffffffffffffffffffff1603610c0f576040517f08c379a0000000000000000000000000000000000000000000000000000000008152600401610c0690611c93565b60405180910390fd5b80600160008573ffffffffffffffffffffffffffffffffffffffff1673ffffffffffffffffffffffffffffffffffffffff16815260200190815260200160002060008473ffffffffffffffffffffffffffffffffffffffff1673ffffffffffffffffffffffffffffffffffffffff168152602001908152602001600020819055508173ffffffffffffffffffffffffffffffffffffffff168373ffffffffffffffffffffffffffffffffffffffff167f8c5be1e5ebec7d5bd14f71427d1e84f3dd0314c0f7b2291e5b200ac8c7c3b92583604051610ced9190611767565b60405180910390a3505050565b6000610d068484610a1f565b90507fffffffffffffffffffffffffffffffffffffffffffffffffffffffffffffffff8114610d805781811015610d72576040517f08c379a0000000000000000000000000000000000000000000000000000000008152600401610d6990611cff565b60405180910390fd5b610d7f8484848403610b31565b5b50505050565b600073ffffffffffffffffffffffffffffffffffffffff168373ffffffffffffffffffffffffffffffffffffffff1603610df5576040517f08c379a0000000000000000000000000000000000000000000000000000000008152600401610dec90611d91565b60405180910390fd5b600073ffffffffffffffffffffffffffffffffffffffff168273ffffffffffffffffffffffffffffffffffffffff1603610e64576040517f08c379a0000000000000000000000000000000000000000000000000000000008152600401610e5b90611e23565b60405180910390fd5b610e6f838383611463565b60008060008573ffffffffffffffffffffffffffffffffffffffff1673ffffffffffffffffffffffffffffffffffffffff16815260200190815260200160002054905081811015610ef5576040517f08c379a0000000000000000000000000000000000000000000000000000000008152600401610eec90611eb5565b60405180910390fd5b8181036000808673ffffffffffffffffffffffffffffffffffffffff1673ffffffffffffffffffffffffffffffffffffffff16815260200190815260200160002081905550816000808573ffffffffffffffffffffffffffffffffffffffff1673ffffffffffffffffffffffffffffffffffffffff168152602001908152602001600020600082825401925050819055508273ffffffffffffffffffffffffffffffffffffffff168473ffffffffffffffffffffffffffffffffffffffff167fddf252ad1be2c89b69c2b068fc378daa952ba7f163c4a11628f55a4df523b3ef84604051610fe39190611767565b60405180910390a3610ff684848461158d565b50505050565b611004610b29565b73ffffffffffffffffffffffffffffffffffffffff166110226108a9565b73ffffffffffffffffffffffffffffffffffffffff1614611078576040517f08c379a000000000000000000000000000000000000000000000000000000000815260040161106f90611f21565b60405180910390fd5b565b600073ffffffffffffffffffffffffffffffffffffffff168273ffffffffffffffffffffffffffffffffffffffff16036110e9576040517f08c379a00000000000000000000000000000000000000000000000000000000081526004016110e090611f8d565b60405180910390fd5b6110f560008383611463565b8060026000828254611107919061195f565b92505081905550806000808473ffffffffffffffffffffffffffffffffffffffff1673ffffffffffffffffffffffffffffffffffffffff168152602001908152602001600020600082825401925050819055508173ffffffffffffffffffffffffffffffffffffffff16600073ffffffffffffffffffffffffffffffffffffffff167fddf252ad1be2c89b69c2b068fc378daa952ba7f163c4a11628f55a4df523b3ef836040516111b89190611767565b60405180910390a36111cc6000838361158d565b5050565b600073ffffffffffffffffffffffffffffffffffffffff168273ffffffffffffffffffffffffffffffffffffffff160361123f576040517f08c379a00000000000000000000000000000000000000000000000000000000081526004016112369061201f565b60405180910390fd5b61124b82600083611463565b60008060008473ffffffffffffffffffffffffffffffffffffffff1673ffffffffffffffffffffffffffffffffffffffff168152602001908152602001600020549050818110156112d1576040517f08c379a00000000000000000000000000000000000000000000000000000000081526004016112c8906120b1565b60405180910390fd5b8181036000808573ffffffffffffffffffffffffffffffffffffffff1673ffffffffffffffffffffffffffffffffffffffff1681526020019081526020016000208190555081600260008282540392505081905550600073ffffffffffffffffffffffffffffffffffffffff168373ffffffffffffffffffffffffffffffffffffffff167fddf252ad1be2c89b69c2b068fc378daa952ba7f163c4a11628f55a4df523b3ef846040516113849190611767565b60405180910390a36113988360008461158d565b505050565b6000600560009054906101000a900473ffffffffffffffffffffffffffffffffffffffff16905081600560006101000a81548173ffffffffffffffffffffffffffffffffffffffff021916908373ffffffffffffffffffffffffffffffffffffffff1602179055508173ffffffffffffffffffffffffffffffffffffffff168173ffffffffffffffffffffffffffffffffffffffff167f8be0079c531659141344cd1fd0a4f28419497f9722a3daafe3b4186f6b6457e060405160405180910390a35050565b600660008473ffffffffffffffffffffffffffffffffffffffff1673ffffffffffffffffffffffffffffffffffffffff16815260200190815260200160002060009054906101000a900460ff16156114f0576040517f08c379a00000000000000000000000000000000000000000000000000000000081526004016114e79061211d565b60405180910390fd5b600660008373ffffffffffffffffffffffffffffffffffffffff1673ffffffffffffffffffffffffffffffffffffffff16815260200190815260200160002060009054906101000a900460ff161561157d576040517f08c379a000000000000000000000000000000000000000000000000000000000815260040161157490612189565b60405180910390fd5b611588838383611592565b505050565b505050565b505050565b600081519050919050565b600082825260208201905092915050565b60005b838110156115d15780820151818401526020810190506115b6565b60008484015250505050565b6000601f19601f8301169050919050565b60006115f982611597565b61160381856115a2565b93506116138185602086016115b3565b61161c816115dd565b840191505092915050565b6000602082019050818103600083015261164181846115ee565b905092915050565b600080fd5b600073ffffffffffffffffffffffffffffffffffffffff82169050919050565b60006116798261164e565b9050919050565b6116898161166e565b811461169457600080fd5b50565b6000813590506116a681611680565b92915050565b6000819050919050565b6116bf816116ac565b81146116ca57600080fd5b50565b6000813590506116dc816116b6565b92915050565b600080604083850312156116f9576116f8611649565b5b600061170785828601611697565b9250506020611718858286016116cd565b9150509250929050565b60008115159050919050565b61173781611722565b82525050565b6000602082019050611752600083018461172e565b92915050565b611761816116ac565b82525050565b600060208201905061177c6000830184611758565b92915050565b60008060006060848603121561179b5761179a611649565b5b60006117a986828701611697565b93505060206117ba86828701611697565b92505060406117cb868287016116cd565b9150509250925092565b600060ff82169050919050565b6117eb816117d5565b82525050565b600060208201905061180660008301846117e2565b92915050565b60006020828403121561182257611821611649565b5b6000611830848285016116cd565b91505092915050565b60006020828403121561184f5761184e611649565b5b600061185d84828501611697565b91505092915050565b61186f8161166e565b82525050565b600060208201905061188a6000830184611866565b92915050565b600080604083850312156118a7576118a6611649565b5b60006118b585828601611697565b92505060206118c685828601611697565b9150509250929050565b7f4e487b7100000000000000000000000000000000000000000000000000000000600052602260045260246000fd5b6000600282049050600182168061191757607f821691505b60208210810361192a576119296118d0565b5b50919050565b7f4e487b7100000000000000000000000000000000000000000000000000000000600052601160045260246000fd5b600061196a826116ac565b9150611975836116ac565b925082820190508082111561198d5761198c611930565b5b92915050565b7f496e76616c696420616464726573730000000000000000000000000000000000600082015250565b60006119c9600f836115a2565b91506119d482611993565b602082019050919050565b600060208201905081810360008301526119f8816119bc565b9050919050565b7f45786365656473206d617820737570706c790000000000000000000000000000600082015250565b6000611a356012836115a2565b9150611a40826119ff565b602082019050919050565b60006020820190508181036000830152611a6481611a28565b9050919050565b7f45524332303a2064656372656173656420616c6c6f77616e63652062656c6f7760008201527f207a65726f000000000000000000000000000000000000000000000000000000602082015250565b6000611ac76025836115a2565b9150611ad282611a6b565b604082019050919050565b60006020820190508181036000830152611af681611aba565b9050919050565b7f4f776e61626c653a206e6577206f776e657220697320746865207a65726f206160008201527f6464726573730000000000000000000000000000000000000000000000000000602082015250565b6000611b596026836115a2565b9150611b6482611afd565b604082019050919050565b60006020820190508181036000830152611b8881611b4c565b9050919050565b7f45524332303a20617070726f76652066726f6d20746865207a65726f2061646460008201527f7265737300000000000000000000000000000000000000000000000000000000602082015250565b6000611beb6024836115a2565b9150611bf682611b8f565b604082019050919050565b60006020820190508181036000830152611c1a81611bde565b9050919050565b7f45524332303a20617070726f766520746f20746865207a65726f20616464726560008201527f7373000000000000000000000000000000000000000000000000000000000000602082015250565b6000611c7d6022836115a2565b9150611c8882611c21565b604082019050919050565b60006020820190508181036000830152611cac81611c70565b9050919050565b7f45524332303a20696e73756666696369656e7420616c6c6f77616e6365000000600082015250565b6000611ce9601d836115a2565b9150611cf482611cb3565b602082019050919050565b60006020820190508181036000830152611d1881611cdc565b9050919050565b7f45524332303a207472616e736665722066726f6d20746865207a65726f20616460008201527f6472657373000000000000000000000000000000000000000000000000000000602082015250565b6000611d7b6025836115a2565b9150611d8682611d1f565b604082019050919050565b60006020820190508181036000830152611daa81611d6e565b9050919050565b7f45524332303a207472616e7366657220746f20746865207a65726f206164647260008201527f6573730000000000000000000000000000000000000000000000000000000000602082015250565b6000611e0d6023836115a2565b9150611e1882611db1565b604082019050919050565b60006020820190508181036000830152611e3c81611e00565b9050919050565b7f45524332303a207472616e7366657220616d6f756e742065786365656473206260008201527f616c616e63650000000000000000000000000000000000000000000000000000602082015250565b6000611e9f6026836115a2565b9150611eaa82611e43565b604082019050919050565b60006020820190508181036000830152611ece81611e92565b9050919050565b7f4f776e61626c653a2063616c6c6572206973206e6f7420746865206f776e6572600082015250565b6000611f0b6020836115a2565b9150611f1682611ed5565b602082019050919050565b60006020820190508181036000830152611f3a81611efe565b9050919050565b7f45524332303a206d696e7420746f20746865207a65726f206164647265737300600082015250565b6000611f77601f836115a2565b9150611f8282611f41565b602082019050919050565b60006020820190508181036000830152611fa681611f6a565b9050919050565b7f45524332303a206275726e2066726f6d20746865207a65726f2061646472657360008201527f7300000000000000000000000000000000000000000000000000000000000000602082015250565b60006120096021836115a2565b915061201482611fad565b604082019050919050565b6000602082019050818103600083015261203881611ffc565b9050919050565b7f45524332303a206275726e20616d6f756e7420657863656564732062616c616e60008201527f6365000000000000000000000000000000000000000000000000000000000000602082015250565b600061209b6022836115a2565b91506120a68261203f565b604082019050919050565b600060208201905081810360008301526120ca8161208e565b9050919050565b7f53656e64657220626c61636b6c69737465640000000000000000000000000000600082015250565b60006121076012836115a2565b9150612112826120d1565b602082019050919050565b60006020820190508181036000830152612136816120fa565b9050919050565b7f526563697069656e7420626c61636b6c69737465640000000000000000000000600082015250565b60006121736015836115a2565b915061217e8261213d565b602082019050919050565b600060208201905081810360008301526121a281612166565b905091905056fea2646970667358221220ef82a2b2555249bdbd195c7f0960c1ffd2a4b53ebf3d963357c84f6f0c391d5864736f6c63430008140033",
  "linkReferences": {},
  "deployedLinkReferences": {}
}